{
  "contractName": "dBank",
  "abi": [
    {
      "inputs": [
        {
          "internalType": "contract Token",
          "name": "_token",
          "type": "address"
        }
      ],
      "stateMutability": "nonpayable",
      "type": "constructor"
    },
    {
      "anonymous": false,
      "inputs": [
        {
          "indexed": true,
          "internalType": "address",
          "name": "_from",
          "type": "address"
        },
        {
          "indexed": false,
          "internalType": "uint256",
          "name": "_etherAmount",
          "type": "uint256"
        },
        {
          "indexed": false,
          "internalType": "uint256",
          "name": "_interestEared",
          "type": "uint256"
        }
      ],
      "name": "CheckInterest",
      "type": "event"
    },
    {
      "anonymous": false,
      "inputs": [
        {
          "indexed": true,
          "internalType": "address",
          "name": "_from",
          "type": "address"
        },
        {
          "indexed": false,
          "internalType": "uint256",
          "name": "_timePassed",
          "type": "uint256"
        }
      ],
      "name": "CheckTimePassed",
      "type": "event"
    },
    {
      "anonymous": false,
      "inputs": [
        {
          "indexed": true,
          "internalType": "address",
          "name": "_from",
          "type": "address"
        },
        {
          "indexed": false,
          "internalType": "uint256",
          "name": "_etherAmount",
          "type": "uint256"
        },
        {
          "indexed": false,
          "internalType": "uint256",
          "name": "_timeStart",
          "type": "uint256"
        }
      ],
      "name": "Deposit",
      "type": "event"
    },
    {
      "anonymous": false,
      "inputs": [
        {
          "indexed": true,
          "internalType": "address",
          "name": "_from",
          "type": "address"
        },
        {
          "indexed": false,
          "internalType": "uint256",
          "name": "_etherAmount",
          "type": "uint256"
        },
        {
          "indexed": false,
          "internalType": "uint256",
          "name": "_interestEared",
          "type": "uint256"
        },
        {
          "indexed": false,
          "internalType": "uint256",
          "name": "_withdrawTime",
          "type": "uint256"
        }
      ],
      "name": "Withdraw",
      "type": "event"
    },
    {
      "inputs": [
        {
          "internalType": "address",
          "name": "",
          "type": "address"
        }
      ],
      "name": "depositStart",
      "outputs": [
        {
          "internalType": "uint256",
          "name": "",
          "type": "uint256"
        }
      ],
      "stateMutability": "view",
      "type": "function",
      "constant": true
    },
    {
      "inputs": [
        {
          "internalType": "address",
          "name": "",
          "type": "address"
        }
      ],
      "name": "etherBalanceOf",
      "outputs": [
        {
          "internalType": "uint256",
          "name": "",
          "type": "uint256"
        }
      ],
      "stateMutability": "view",
      "type": "function",
      "constant": true
    },
    {
      "inputs": [
        {
          "internalType": "address",
          "name": "",
          "type": "address"
        }
      ],
      "name": "isDeposited",
      "outputs": [
        {
          "internalType": "bool",
          "name": "",
          "type": "bool"
        }
      ],
      "stateMutability": "view",
      "type": "function",
      "constant": true
    },
    {
      "inputs": [],
      "name": "deposit",
      "outputs": [],
      "stateMutability": "payable",
      "type": "function",
      "payable": true
    },
    {
      "inputs": [],
      "name": "withdraw",
      "outputs": [],
      "stateMutability": "nonpayable",
      "type": "function"
    },
    {
      "inputs": [],
      "name": "checkInterest",
      "outputs": [],
      "stateMutability": "nonpayable",
      "type": "function"
    },
    {
      "inputs": [],
      "name": "checkTimePassed",
      "outputs": [
        {
          "internalType": "uint256",
          "name": "_depositStart",
          "type": "uint256"
        },
        {
          "internalType": "uint256",
          "name": "_amountDeposited",
          "type": "uint256"
        }
      ],
      "stateMutability": "view",
      "type": "function",
      "constant": true
    },
    {
      "inputs": [],
      "name": "borrow",
      "outputs": [],
      "stateMutability": "payable",
      "type": "function",
      "payable": true
    },
    {
      "inputs": [],
      "name": "payOff",
      "outputs": [],
      "stateMutability": "nonpayable",
      "type": "function"
    }
  ],
  "bytecode": "0x608060405234801561001057600080fd5b50604051610ca4380380610ca48339818101604052602081101561003357600080fd5b8101908080519060200190929190505050806000806101000a81548173ffffffffffffffffffffffffffffffffffffffff021916908373ffffffffffffffffffffffffffffffffffffffff16021790555050610c10806100946000396000f3fe6080604052600436106100865760003560e01c806387658a061161005957806387658a06146101855780639a52b339146101b7578063d0e30db0146101ce578063e68d3569146101d8578063ff87930a146101e257610086565b8063179fc99f1461008b5780633ccfd60b146100f05780633fac68d514610107578063737320241461011e575b600080fd5b34801561009757600080fd5b506100da600480360360208110156100ae57600080fd5b81019080803573ffffffffffffffffffffffffffffffffffffffff169060200190929190505050610247565b6040518082815260200191505060405180910390f35b3480156100fc57600080fd5b5061010561025f565b005b34801561011357600080fd5b5061011c610633565b005b34801561012a57600080fd5b5061016d6004803603602081101561014157600080fd5b81019080803573ffffffffffffffffffffffffffffffffffffffff169060200190929190505050610635565b60405180821515815260200191505060405180910390f35b34801561019157600080fd5b5061019a610655565b604051808381526020018281526020019250505060405180910390f35b3480156101c357600080fd5b506101cc610782565b005b6101d66108e0565b005b6101e0610b4a565b005b3480156101ee57600080fd5b506102316004803603602081101561020557600080fd5b81019080803573ffffffffffffffffffffffffffffffffffffffff169060200190929190505050610b4c565b6040518082815260200191505060405180910390f35b60016020528060005260406000206000915090505481565b600360003373ffffffffffffffffffffffffffffffffffffffff1673ffffffffffffffffffffffffffffffffffffffff16815260200190815260200160002060009054906101000a900460ff16610301576040517f08c379a0000000000000000000000000000000000000000000000000000000008152600401808060200182810382526025815260200180610b8a6025913960400191505060405180910390fd5b6000600160003373ffffffffffffffffffffffffffffffffffffffff1673ffffffffffffffffffffffffffffffffffffffff1681526020019081526020016000205490506000600260003373ffffffffffffffffffffffffffffffffffffffff1673ffffffffffffffffffffffffffffffffffffffff16815260200190815260200160002054420390506000662386f26fc10000600160003373ffffffffffffffffffffffffffffffffffffffff1673ffffffffffffffffffffffffffffffffffffffff16815260200190815260200160002054816103dc57fe5b046301e33731029050600082820290503373ffffffffffffffffffffffffffffffffffffffff166108fc859081150290604051600060405180830381858888f19350505050158015610432573d6000803e3d6000fd5b5060008054906101000a900473ffffffffffffffffffffffffffffffffffffffff1673ffffffffffffffffffffffffffffffffffffffff166340c10f1933836040518363ffffffff1660e01b8152600401808373ffffffffffffffffffffffffffffffffffffffff16815260200182815260200192505050600060405180830381600087803b1580156104c457600080fd5b505af11580156104d8573d6000803e3d6000fd5b505050506000600160003373ffffffffffffffffffffffffffffffffffffffff1673ffffffffffffffffffffffffffffffffffffffff168152602001908152602001600020819055506000600260003373ffffffffffffffffffffffffffffffffffffffff1673ffffffffffffffffffffffffffffffffffffffff168152602001908152602001600020819055506000600360003373ffffffffffffffffffffffffffffffffffffffff1673ffffffffffffffffffffffffffffffffffffffff16815260200190815260200160002060006101000a81548160ff0219169083151502179055503373ffffffffffffffffffffffffffffffffffffffff167f02f25270a4d87bea75db541cdfe559334a275b4a233520ed6c0a2429667cca9485670de0b6b3a7640000848161060857fe5b044260405180848152602001838152602001828152602001935050505060405180910390a250505050565b565b60036020528060005260406000206000915054906101000a900460ff1681565b600080600360003373ffffffffffffffffffffffffffffffffffffffff1673ffffffffffffffffffffffffffffffffffffffff16815260200190815260200160002060009054906101000a900460ff166106fa576040517f08c379a0000000000000000000000000000000000000000000000000000000008152600401808060200182810382526025815260200180610b656025913960400191505060405180910390fd5b600260003373ffffffffffffffffffffffffffffffffffffffff1673ffffffffffffffffffffffffffffffffffffffff16815260200190815260200160002054600160003373ffffffffffffffffffffffffffffffffffffffff1673ffffffffffffffffffffffffffffffffffffffff16815260200190815260200160002054915091509091565b600360003373ffffffffffffffffffffffffffffffffffffffff1673ffffffffffffffffffffffffffffffffffffffff16815260200190815260200160002060009054906101000a900460ff166107d857600080fd5b6000600160003373ffffffffffffffffffffffffffffffffffffffff1673ffffffffffffffffffffffffffffffffffffffff1681526020019081526020016000205490506000600260003373ffffffffffffffffffffffffffffffffffffffff1673ffffffffffffffffffffffffffffffffffffffff16815260200190815260200160002054420390506000662386f26fc10000838161087457fe5b046301e33731029050600082820290503373ffffffffffffffffffffffffffffffffffffffff167f721b757aa4a4e08ddcf73328285fcf848cb5e66cb4d6d8be126cac6a50dd04898583604051808381526020018281526020019250505060405180910390a250505050565b600360003373ffffffffffffffffffffffffffffffffffffffff1673ffffffffffffffffffffffffffffffffffffffff16815260200190815260200160002060009054906101000a900460ff16156109a0576040517f08c379a000000000000000000000000000000000000000000000000000000000815260040180806020018281038252601d8152602001807f4572726f723a204465706f73697420616c72656164792061637469766500000081525060200191505060405180910390fd5b662386f26fc10000341015610a00576040517f08c379a000000000000000000000000000000000000000000000000000000000815260040180806020018281038252602c815260200180610baf602c913960400191505060405180910390fd5b34600160003373ffffffffffffffffffffffffffffffffffffffff1673ffffffffffffffffffffffffffffffffffffffff1681526020019081526020016000206000828254019250508190555042600260003373ffffffffffffffffffffffffffffffffffffffff1673ffffffffffffffffffffffffffffffffffffffff168152602001908152602001600020600082825401925050819055506001600360003373ffffffffffffffffffffffffffffffffffffffff1673ffffffffffffffffffffffffffffffffffffffff16815260200190815260200160002060006101000a81548160ff0219169083151502179055503373ffffffffffffffffffffffffffffffffffffffff167f90890809c654f11d6e72a28fa60149770a0d11ec6c92319d6ceb2bb0a4ea1a153442604051808381526020018281526020019250505060405180910390a2565b565b6002602052806000526040600020600091509050548156fe4572726f723a20596f752068617665206e6f74206465706f736974656420455448207965744572726f723a20596f752068617665206e6f7420796574206465706f7369746564204554484572726f723a204465706f736974206d7573742062652067726561746572207468616e20302e303120455448a26469706673582212201160236e75ff5f5d5031fe60082b49aa689a9610dae42714816c8f41fc7c223164736f6c63430007060033",
  "immutableReferences": {},
  "source": "// SPDX-License-Identifier: MIT\r\npragma solidity >=0.6.0 <0.8.0;\r\n\r\nimport \"./Token.sol\";\r\n\r\ncontract dBank {\r\n    //assign Token contract to variable\r\n    Token private token;\r\n\r\n    //add mappings\r\n    mapping(address => uint256) public etherBalanceOf;\r\n    mapping(address => uint256) public depositStart;\r\n    mapping(address => bool) public isDeposited;\r\n\r\n    //add events\r\n    event Deposit(\r\n        address indexed _from,\r\n        uint256 _etherAmount,\r\n        uint256 _timeStart\r\n    );\r\n\r\n    event Withdraw(\r\n        address indexed _from,\r\n        uint256 _etherAmount,\r\n        uint256 _interestEared,\r\n        uint256 _withdrawTime\r\n    );\r\n\r\n    event CheckInterest(\r\n        address indexed _from,\r\n        uint256 _etherAmount,\r\n        uint256 _interestEared\r\n    );\r\n\r\n    event CheckTimePassed(address indexed _from, uint256 _timePassed);\r\n\r\n    //pass as constructor argument deployed Token contract\r\n    constructor(Token _token) public {\r\n        //assign token deployed contract to variable\r\n        token = _token;\r\n    }\r\n\r\n    function deposit() public payable {\r\n        //check if msg.sender didn't already deposited funds\r\n        require(!isDeposited[msg.sender], \"Error: Deposit already active\");\r\n\r\n        //check if msg.value is >= than 0.01 ETH\r\n        require(\r\n            msg.value >= 0.01 ether,\r\n            \"Error: Deposit must be greater than 0.01 ETH\"\r\n        );\r\n\r\n        //increase msg.sender ether deposit balance\r\n        etherBalanceOf[msg.sender] += msg.value;\r\n\r\n        //start msg.sender hodling time\r\n        depositStart[msg.sender] += block.timestamp;\r\n\r\n        //set msg.sender deposit status to true\r\n        isDeposited[msg.sender] = true;\r\n\r\n        //emit Deposit event\r\n        emit Deposit(msg.sender, msg.value, block.timestamp);\r\n    }\r\n\r\n    function withdraw() public {\r\n        //check if msg.sender deposit status is true\r\n        require(\r\n            isDeposited[msg.sender],\r\n            \"Error: You have not yet deposited ETH\"\r\n        );\r\n        //assign msg.sender ether deposit balance to variable for event\r\n        uint256 userBalance = etherBalanceOf[msg.sender];\r\n\r\n        //check user's hodl time\r\n        uint256 hodlTime = block.timestamp - depositStart[msg.sender];\r\n\r\n        //calc accrued interest assuming 10% interest in wei\r\n        uint256 interestPerSecond =\r\n            31668017 * (etherBalanceOf[msg.sender] / 1e16);\r\n        uint256 interest = interestPerSecond * hodlTime;\r\n\r\n        //send eth to user\r\n        msg.sender.transfer(userBalance);\r\n\r\n        //send interest in tokens to user\r\n        token.mint(msg.sender, interest);\r\n\r\n        //reset depositer data\r\n        etherBalanceOf[msg.sender] = 0;\r\n        depositStart[msg.sender] = 0;\r\n        isDeposited[msg.sender] = false;\r\n\r\n        //emit event, convert interestEarned from wei to DBC assuming DBC has same wei conversion rates as ETH\r\n        emit Withdraw(\r\n            msg.sender,\r\n            userBalance,\r\n            interest / 1e18,\r\n            block.timestamp\r\n        );\r\n    }\r\n\r\n    function checkInterest() public {\r\n        require(isDeposited[msg.sender]);\r\n        //assign msg.sender ether deposit balance to variable for event\r\n        uint256 userBalance = etherBalanceOf[msg.sender];\r\n\r\n        //check user's hodl time\r\n        uint256 hodlTime = block.timestamp - depositStart[msg.sender];\r\n\r\n        //calc accrued interest assuming 10% interest in wei\r\n        uint256 interestPerSecond = 31668017 * (userBalance / 1e16);\r\n        uint256 interest = interestPerSecond * hodlTime;\r\n\r\n        emit CheckInterest(msg.sender, userBalance, interest);\r\n    }\r\n\r\n    function checkTimePassed()\r\n        public\r\n        view\r\n        returns (uint256 _depositStart, uint256 _amountDeposited)\r\n    {\r\n        require(\r\n            isDeposited[msg.sender],\r\n            \"Error: You have not deposited ETH yet\"\r\n        );\r\n        return (depositStart[msg.sender], etherBalanceOf[msg.sender]);\r\n    }\r\n\r\n    function borrow() public payable {\r\n        //check if collateral is >= than 0.01 ETH\r\n        //check if user doesn't have active loan\r\n        //add msg.value to ether collateral\r\n        //calc tokens amount to mint, 50% of msg.value\r\n        //mint&send tokens to user\r\n        //activate borrower's loan status\r\n        //emit event\r\n    }\r\n\r\n    function payOff() public {\r\n        //check if loan is active\r\n        //transfer tokens from user back to the contract\r\n        //calc fee\r\n        //send user's collateral minus fee\r\n        //reset borrower's data\r\n        //emit event\r\n    }\r\n}\r\n",
  "sourcePath": "C:/Users/Jung/Desktop/dbank/src/contracts/dBank.sol",
  "compiler": {
    "name": "solc",
    "version": "0.7.6+commit.7338295f.Emscripten.clang"
  },
  "schemaVersion": "3.3.4",
  "updatedAt": "2021-06-01T00:32:10.555Z",
  "networkType": "ethereum",
  "devdoc": {
    "kind": "dev",
    "methods": {},
    "version": 1
  },
  "userdoc": {
    "kind": "user",
    "methods": {},
    "version": 1
  }
}